{
  "contractName": "Radio",
  "abi": [
    {
      "anonymous": false,
      "inputs": [
        {
          "indexed": false,
          "internalType": "address",
          "name": "nftContract",
          "type": "address"
        },
        {
          "indexed": false,
          "internalType": "uint256",
          "name": "tokenId",
          "type": "uint256"
        },
        {
          "indexed": false,
          "internalType": "address",
          "name": "seller",
          "type": "address"
        },
        {
          "indexed": false,
          "internalType": "address",
          "name": "owner",
          "type": "address"
        }
      ],
      "name": "NFTDeleted",
      "type": "event"
    },
    {
      "anonymous": false,
      "inputs": [
        {
          "indexed": false,
          "internalType": "address",
          "name": "nftContract",
          "type": "address"
        },
        {
          "indexed": false,
          "internalType": "uint256",
          "name": "tokenId",
          "type": "uint256"
        },
        {
          "indexed": false,
          "internalType": "address",
          "name": "seller",
          "type": "address"
        },
        {
          "indexed": false,
          "internalType": "address",
          "name": "owner",
          "type": "address"
        }
      ],
      "name": "NFTListed",
      "type": "event"
    },
    {
      "anonymous": false,
      "inputs": [
        {
          "indexed": false,
          "internalType": "address",
          "name": "nftContract",
          "type": "address"
        },
        {
          "indexed": false,
          "internalType": "uint256",
          "name": "tokenId",
          "type": "uint256"
        },
        {
          "indexed": false,
          "internalType": "address",
          "name": "seller",
          "type": "address"
        },
        {
          "indexed": false,
          "internalType": "address",
          "name": "owner",
          "type": "address"
        }
      ],
      "name": "NFTSold",
      "type": "event"
    },
    {
      "inputs": [
        {
          "internalType": "uint256",
          "name": "_tokenId",
          "type": "uint256"
        },
        {
          "internalType": "uint256",
          "name": "_heatCount",
          "type": "uint256"
        }
      ],
      "name": "giveHeat",
      "outputs": [],
      "stateMutability": "payable",
      "type": "function",
      "payable": true
    },
    {
      "inputs": [
        {
          "internalType": "uint256",
          "name": "_tokenId",
          "type": "uint256"
        }
      ],
      "name": "deleteNFT",
      "outputs": [],
      "stateMutability": "nonpayable",
      "type": "function"
    },
    {
      "inputs": [
        {
          "internalType": "address",
          "name": "_nftContract",
          "type": "address"
        },
        {
          "internalType": "uint256",
          "name": "_tokenId",
          "type": "uint256"
        }
      ],
      "name": "listNft",
      "outputs": [],
      "stateMutability": "payable",
      "type": "function",
      "payable": true
    },
    {
      "inputs": [],
      "name": "getListedNfts",
      "outputs": [
        {
          "components": [
            {
              "internalType": "address",
              "name": "nftContract",
              "type": "address"
            },
            {
              "internalType": "uint256",
              "name": "tokenId",
              "type": "uint256"
            },
            {
              "internalType": "address payable",
              "name": "seller",
              "type": "address"
            },
            {
              "internalType": "address payable",
              "name": "owner",
              "type": "address"
            },
            {
              "internalType": "bool",
              "name": "listed",
              "type": "bool"
            },
            {
              "internalType": "uint256",
              "name": "heatCount",
              "type": "uint256"
            },
            {
              "internalType": "string",
              "name": "genre",
              "type": "string"
            }
          ],
          "internalType": "struct Radio.NFT[]",
          "name": "",
          "type": "tuple[]"
        }
      ],
      "stateMutability": "view",
      "type": "function",
      "constant": true
    },
    {
      "inputs": [],
      "name": "getMyNfts",
      "outputs": [
        {
          "components": [
            {
              "internalType": "address",
              "name": "nftContract",
              "type": "address"
            },
            {
              "internalType": "uint256",
              "name": "tokenId",
              "type": "uint256"
            },
            {
              "internalType": "address payable",
              "name": "seller",
              "type": "address"
            },
            {
              "internalType": "address payable",
              "name": "owner",
              "type": "address"
            },
            {
              "internalType": "bool",
              "name": "listed",
              "type": "bool"
            },
            {
              "internalType": "uint256",
              "name": "heatCount",
              "type": "uint256"
            },
            {
              "internalType": "string",
              "name": "genre",
              "type": "string"
            }
          ],
          "internalType": "struct Radio.NFT[]",
          "name": "",
          "type": "tuple[]"
        }
      ],
      "stateMutability": "view",
      "type": "function",
      "constant": true
    },
    {
      "inputs": [],
      "name": "getMyListedNfts",
      "outputs": [
        {
          "components": [
            {
              "internalType": "address",
              "name": "nftContract",
              "type": "address"
            },
            {
              "internalType": "uint256",
              "name": "tokenId",
              "type": "uint256"
            },
            {
              "internalType": "address payable",
              "name": "seller",
              "type": "address"
            },
            {
              "internalType": "address payable",
              "name": "owner",
              "type": "address"
            },
            {
              "internalType": "bool",
              "name": "listed",
              "type": "bool"
            },
            {
              "internalType": "uint256",
              "name": "heatCount",
              "type": "uint256"
            },
            {
              "internalType": "string",
              "name": "genre",
              "type": "string"
            }
          ],
          "internalType": "struct Radio.NFT[]",
          "name": "",
          "type": "tuple[]"
        }
      ],
      "stateMutability": "view",
      "type": "function",
      "constant": true
    }
  ],
  "bytecode": "0x608060405234801561001057600080fd5b506001600081905550611ebd806100286000396000f3fe6080604052600436106100555760003560e01c8063047b07bf1461005a578063192027eb146100855780631f4cc4db146100a1578063414758d5146100cc5780638d6cb3fb146100e8578063f687ed5714610113575b600080fd5b34801561006657600080fd5b5061006f61013c565b60405161007c91906115ee565b60405180910390f35b61009f600480360381019061009a919061166d565b610501565b005b3480156100ad57600080fd5b506100b6610788565b6040516100c391906115ee565b60405180910390f35b6100e660048036038101906100e191906116ad565b610bbf565b005b3480156100f457600080fd5b506100fd610cdf565b60405161010a91906115ee565b60405180910390f35b34801561011f57600080fd5b5061013a600480360381019061013591906116ed565b610fd9565b005b6060600061014a600261126c565b90506000805b828110156101ef573373ffffffffffffffffffffffffffffffffffffffff16600360006001846101809190611749565b815260200190815260200160002060030160009054906101000a900473ffffffffffffffffffffffffffffffffffffffff1673ffffffffffffffffffffffffffffffffffffffff16036101dc5781806101d89061177d565b9250505b80806101e79061177d565b915050610150565b5060008167ffffffffffffffff81111561020c5761020b6117c5565b5b60405190808252806020026020018201604052801561024557816020015b6102326112e9565b81526020019060019003908161022a5790505b5090506000805b848110156104f6573373ffffffffffffffffffffffffffffffffffffffff166003600060018461027c9190611749565b815260200190815260200160002060030160009054906101000a900473ffffffffffffffffffffffffffffffffffffffff1673ffffffffffffffffffffffffffffffffffffffff16036104e357600360006001836102da9190611749565b81526020019081526020016000206040518060e00160405290816000820160009054906101000a900473ffffffffffffffffffffffffffffffffffffffff1673ffffffffffffffffffffffffffffffffffffffff1673ffffffffffffffffffffffffffffffffffffffff168152602001600182015481526020016002820160009054906101000a900473ffffffffffffffffffffffffffffffffffffffff1673ffffffffffffffffffffffffffffffffffffffff1673ffffffffffffffffffffffffffffffffffffffff1681526020016003820160009054906101000a900473ffffffffffffffffffffffffffffffffffffffff1673ffffffffffffffffffffffffffffffffffffffff1673ffffffffffffffffffffffffffffffffffffffff1681526020016003820160149054906101000a900460ff161515151581526020016004820154815260200160058201805461043490611823565b80601f016020809104026020016040519081016040528092919081815260200182805461046090611823565b80156104ad5780601f10610482576101008083540402835291602001916104ad565b820191906000526020600020905b81548152906001019060200180831161049057829003601f168201915b5050505050815250508383815181106104c9576104c8611854565b5b602002602001018190525081806104df9061177d565b9250505b80806104ee9061177d565b91505061024c565b508194505050505090565b61050961127a565b8173ffffffffffffffffffffffffffffffffffffffff166323b872dd3330846040518463ffffffff1660e01b8152600401610546939291906118a1565b600060405180830381600087803b15801561056057600080fd5b505af1158015610574573d6000803e3d6000fd5b5050505061058260026112c9565b6040518060e001604052808373ffffffffffffffffffffffffffffffffffffffff1681526020018281526020013373ffffffffffffffffffffffffffffffffffffffff1681526020013073ffffffffffffffffffffffffffffffffffffffff16815260200160011515815260200160008152602001604051806020016040528060008152508152506003600083815260200190815260200160002060008201518160000160006101000a81548173ffffffffffffffffffffffffffffffffffffffff021916908373ffffffffffffffffffffffffffffffffffffffff1602179055506020820151816001015560408201518160020160006101000a81548173ffffffffffffffffffffffffffffffffffffffff021916908373ffffffffffffffffffffffffffffffffffffffff16021790555060608201518160030160006101000a81548173ffffffffffffffffffffffffffffffffffffffff021916908373ffffffffffffffffffffffffffffffffffffffff16021790555060808201518160030160146101000a81548160ff02191690831515021790555060a0820151816004015560c082015181600501908161073b9190611a84565b509050507f232534bbd51d7cde87652214a8c8454ac134ea309ff79aed199c676bebca94b9828233306040516107749493929190611b56565b60405180910390a16107846112df565b5050565b60606000610796600261126c565b90506000805b82811015610874573373ffffffffffffffffffffffffffffffffffffffff16600360006001846107cc9190611749565b815260200190815260200160002060020160009054906101000a900473ffffffffffffffffffffffffffffffffffffffff1673ffffffffffffffffffffffffffffffffffffffff1614801561084d57506003600060018361082d9190611749565b815260200190815260200160002060030160149054906101000a900460ff165b1561086157818061085d9061177d565b9250505b808061086c9061177d565b91505061079c565b5060008167ffffffffffffffff811115610891576108906117c5565b5b6040519080825280602002602001820160405280156108ca57816020015b6108b76112e9565b8152602001906001900390816108af5790505b5090506000805b84811015610bb4573373ffffffffffffffffffffffffffffffffffffffff16600360006001846109019190611749565b815260200190815260200160002060020160009054906101000a900473ffffffffffffffffffffffffffffffffffffffff1673ffffffffffffffffffffffffffffffffffffffff161480156109825750600360006001836109629190611749565b815260200190815260200160002060030160149054906101000a900460ff165b15610ba157600360006001836109989190611749565b81526020019081526020016000206040518060e00160405290816000820160009054906101000a900473ffffffffffffffffffffffffffffffffffffffff1673ffffffffffffffffffffffffffffffffffffffff1673ffffffffffffffffffffffffffffffffffffffff168152602001600182015481526020016002820160009054906101000a900473ffffffffffffffffffffffffffffffffffffffff1673ffffffffffffffffffffffffffffffffffffffff1673ffffffffffffffffffffffffffffffffffffffff1681526020016003820160009054906101000a900473ffffffffffffffffffffffffffffffffffffffff1673ffffffffffffffffffffffffffffffffffffffff1673ffffffffffffffffffffffffffffffffffffffff1681526020016003820160149054906101000a900460ff1615151515815260200160048201548152602001600582018054610af290611823565b80601f0160208091040260200160405190810160405280929190818152602001828054610b1e90611823565b8015610b6b5780601f10610b4057610100808354040283529160200191610b6b565b820191906000526020600020905b815481529060010190602001808311610b4e57829003601f168201915b505050505081525050838381518110610b8757610b86611854565b5b60200260200101819052508180610b9d9061177d565b9250505b8080610bac9061177d565b9150506108d1565b508194505050505090565b60006003600084815260200190815260200160002090508060030160149054906101000a900460ff16610c27576040517f08c379a0000000000000000000000000000000000000000000000000000000008152600401610c1e90611bf8565b60405180910390fd5b8060020160009054906101000a900473ffffffffffffffffffffffffffffffffffffffff1673ffffffffffffffffffffffffffffffffffffffff166108fc839081150290604051600060405180830381858888f19350505050610cbf576040517f08c379a0000000000000000000000000000000000000000000000000000000008152600401610cb690611c64565b60405180910390fd5b81816004016000828254610cd39190611749565b92505081905550505050565b60606000610ced600261126c565b90506000610cfb600161126c565b82610d069190611c84565b905060008167ffffffffffffffff811115610d2457610d236117c5565b5b604051908082528060200260200182016040528015610d5d57816020015b610d4a6112e9565b815260200190600190039081610d425790505b5090506000805b84811015610fce5760036000600183610d7d9190611749565b815260200190815260200160002060030160149054906101000a900460ff1615610fbb5760036000600183610db29190611749565b81526020019081526020016000206040518060e00160405290816000820160009054906101000a900473ffffffffffffffffffffffffffffffffffffffff1673ffffffffffffffffffffffffffffffffffffffff1673ffffffffffffffffffffffffffffffffffffffff168152602001600182015481526020016002820160009054906101000a900473ffffffffffffffffffffffffffffffffffffffff1673ffffffffffffffffffffffffffffffffffffffff1673ffffffffffffffffffffffffffffffffffffffff1681526020016003820160009054906101000a900473ffffffffffffffffffffffffffffffffffffffff1673ffffffffffffffffffffffffffffffffffffffff1673ffffffffffffffffffffffffffffffffffffffff1681526020016003820160149054906101000a900460ff1615151515815260200160048201548152602001600582018054610f0c90611823565b80601f0160208091040260200160405190810160405280929190818152602001828054610f3890611823565b8015610f855780601f10610f5a57610100808354040283529160200191610f85565b820191906000526020600020905b815481529060010190602001808311610f6857829003601f168201915b505050505081525050838381518110610fa157610fa0611854565b5b60200260200101819052508180610fb79061177d565b9250505b8080610fc69061177d565b915050610d64565b508194505050505090565b610fe161127a565b60006003600083815260200190815260200160002090508060030160149054906101000a900460ff16611049576040517f08c379a000000000000000000000000000000000000000000000000000000000815260040161104090611bf8565b60405180910390fd5b3373ffffffffffffffffffffffffffffffffffffffff168160030160009054906101000a900473ffffffffffffffffffffffffffffffffffffffff1673ffffffffffffffffffffffffffffffffffffffff16146110db576040517f08c379a00000000000000000000000000000000000000000000000000000000081526004016110d290611d2a565b60405180910390fd5b8060000160009054906101000a900473ffffffffffffffffffffffffffffffffffffffff1673ffffffffffffffffffffffffffffffffffffffff166323b872dd308360030160009054906101000a900473ffffffffffffffffffffffffffffffffffffffff1684600101546040518463ffffffff1660e01b815260040161116493929190611d9f565b600060405180830381600087803b15801561117e57600080fd5b505af1158015611192573d6000803e3d6000fd5b5050505060008160030160146101000a81548160ff0219169083151502179055507f48359e48a1f5ed61bd9a9b6a18ff557528271bcb297f07813c282639197d138b8160000160009054906101000a900473ffffffffffffffffffffffffffffffffffffffff1682600101548360020160009054906101000a900473ffffffffffffffffffffffffffffffffffffffff168460030160009054906101000a900473ffffffffffffffffffffffffffffffffffffffff166040516112589493929190611dd6565b60405180910390a1506112696112df565b50565b600081600001549050919050565b6002600054036112bf576040517f08c379a00000000000000000000000000000000000000000000000000000000081526004016112b690611e67565b60405180910390fd5b6002600081905550565b6001816000016000828254019250508190555050565b6001600081905550565b6040518060e00160405280600073ffffffffffffffffffffffffffffffffffffffff16815260200160008152602001600073ffffffffffffffffffffffffffffffffffffffff168152602001600073ffffffffffffffffffffffffffffffffffffffff16815260200160001515815260200160008152602001606081525090565b600081519050919050565b600082825260208201905092915050565b6000819050602082019050919050565b600073ffffffffffffffffffffffffffffffffffffffff82169050919050565b60006113c182611396565b9050919050565b6113d1816113b6565b82525050565b6000819050919050565b6113ea816113d7565b82525050565b60006113fb82611396565b9050919050565b61140b816113f0565b82525050565b60008115159050919050565b61142681611411565b82525050565b600081519050919050565b600082825260208201905092915050565b60005b8381101561146657808201518184015260208101905061144b565b60008484015250505050565b6000601f19601f8301169050919050565b600061148e8261142c565b6114988185611437565b93506114a8818560208601611448565b6114b181611472565b840191505092915050565b600060e0830160008301516114d460008601826113c8565b5060208301516114e760208601826113e1565b5060408301516114fa6040860182611402565b50606083015161150d6060860182611402565b506080830151611520608086018261141d565b5060a083015161153360a08601826113e1565b5060c083015184820360c086015261154b8282611483565b9150508091505092915050565b600061156483836114bc565b905092915050565b6000602082019050919050565b60006115848261136a565b61158e8185611375565b9350836020820285016115a085611386565b8060005b858110156115dc57848403895281516115bd8582611558565b94506115c88361156c565b925060208a019950506001810190506115a4565b50829750879550505050505092915050565b600060208201905081810360008301526116088184611579565b905092915050565b600080fd5b61161e816113b6565b811461162957600080fd5b50565b60008135905061163b81611615565b92915050565b61164a816113d7565b811461165557600080fd5b50565b60008135905061166781611641565b92915050565b6000806040838503121561168457611683611610565b5b60006116928582860161162c565b92505060206116a385828601611658565b9150509250929050565b600080604083850312156116c4576116c3611610565b5b60006116d285828601611658565b92505060206116e385828601611658565b9150509250929050565b60006020828403121561170357611702611610565b5b600061171184828501611658565b91505092915050565b7f4e487b7100000000000000000000000000000000000000000000000000000000600052601160045260246000fd5b6000611754826113d7565b915061175f836113d7565b92508282019050808211156117775761177661171a565b5b92915050565b6000611788826113d7565b91507fffffffffffffffffffffffffffffffffffffffffffffffffffffffffffffffff82036117ba576117b961171a565b5b600182019050919050565b7f4e487b7100000000000000000000000000000000000000000000000000000000600052604160045260246000fd5b7f4e487b7100000000000000000000000000000000000000000000000000000000600052602260045260246000fd5b6000600282049050600182168061183b57607f821691505b60208210810361184e5761184d6117f4565b5b50919050565b7f4e487b7100000000000000000000000000000000000000000000000000000000600052603260045260246000fd5b61188c816113b6565b82525050565b61189b816113d7565b82525050565b60006060820190506118b66000830186611883565b6118c36020830185611883565b6118d06040830184611892565b949350505050565b60008190508160005260206000209050919050565b60006020601f8301049050919050565b600082821b905092915050565b60006008830261193a7fffffffffffffffffffffffffffffffffffffffffffffffffffffffffffffffff826118fd565b61194486836118fd565b95508019841693508086168417925050509392505050565b6000819050919050565b600061198161197c611977846113d7565b61195c565b6113d7565b9050919050565b6000819050919050565b61199b83611966565b6119af6119a782611988565b84845461190a565b825550505050565b600090565b6119c46119b7565b6119cf818484611992565b505050565b5b818110156119f3576119e86000826119bc565b6001810190506119d5565b5050565b601f821115611a3857611a09816118d8565b611a12846118ed565b81016020851015611a21578190505b611a35611a2d856118ed565b8301826119d4565b50505b505050565b600082821c905092915050565b6000611a5b60001984600802611a3d565b1980831691505092915050565b6000611a748383611a4a565b9150826002028217905092915050565b611a8d8261142c565b67ffffffffffffffff811115611aa657611aa56117c5565b5b611ab08254611823565b611abb8282856119f7565b600060209050601f831160018114611aee5760008415611adc578287015190505b611ae68582611a68565b865550611b4e565b601f198416611afc866118d8565b60005b82811015611b2457848901518255600182019150602085019450602081019050611aff565b86831015611b415784890151611b3d601f891682611a4a565b8355505b6001600288020188555050505b505050505050565b6000608082019050611b6b6000830187611883565b611b786020830186611892565b611b856040830185611883565b611b926060830184611883565b95945050505050565b600082825260208201905092915050565b7f4e4654206973206e6f74206c6973746564000000000000000000000000000000600082015250565b6000611be2601183611b9b565b9150611bed82611bac565b602082019050919050565b60006020820190508181036000830152611c1181611bd5565b9050919050565b7f5472616e73666572206661696c65640000000000000000000000000000000000600082015250565b6000611c4e600f83611b9b565b9150611c5982611c18565b602082019050919050565b60006020820190508181036000830152611c7d81611c41565b9050919050565b6000611c8f826113d7565b9150611c9a836113d7565b9250828203905081811115611cb257611cb161171a565b5b92915050565b7f4f6e6c7920746865206f776e65722063616e2064656c65746520746865204e4660008201527f5400000000000000000000000000000000000000000000000000000000000000602082015250565b6000611d14602183611b9b565b9150611d1f82611cb8565b604082019050919050565b60006020820190508181036000830152611d4381611d07565b9050919050565b6000611d65611d60611d5b84611396565b61195c565b611396565b9050919050565b6000611d7782611d4a565b9050919050565b6000611d8982611d6c565b9050919050565b611d9981611d7e565b82525050565b6000606082019050611db46000830186611883565b611dc16020830185611d90565b611dce6040830184611892565b949350505050565b6000608082019050611deb6000830187611883565b611df86020830186611892565b611e056040830185611d90565b611e126060830184611d90565b95945050505050565b7f5265656e7472616e637947756172643a207265656e7472616e742063616c6c00600082015250565b6000611e51601f83611b9b565b9150611e5c82611e1b565b602082019050919050565b60006020820190508181036000830152611e8081611e44565b905091905056fea26469706673582212207e62d11478e391e3913261151d99d9169413b9dc931cc8caab0286cbf1340a4364736f6c63430008110033",
  "immutableReferences": {},
  "source": "// SPDX-License-Identifier: MIT\npragma solidity ^0.8.13;\n\nimport \"@openzeppelin/contracts/utils/Counters.sol\";\nimport \"@openzeppelin/contracts/token/ERC721/ERC721.sol\";\nimport \"@openzeppelin/contracts/security/ReentrancyGuard.sol\";\n\ncontract Radio is ReentrancyGuard {\n    using Counters for Counters.Counter;\n    Counters.Counter private _nftsSold;\n    Counters.Counter private _nftCount;\n\n    mapping(uint256 => NFT) private _idToNFT;\n\n    struct NFT {\n        address nftContract;\n        uint256 tokenId;\n        address payable seller;\n        address payable owner;\n        bool listed;\n        uint256 heatCount;\n        string genre;\n    }\n\n    event NFTListed(\n        address nftContract,\n        uint256 tokenId,\n        address seller,\n        address owner\n    );\n\n    event NFTSold(\n        address nftContract,\n        uint256 tokenId,\n        address seller,\n        address owner\n    );\n\n    event NFTDeleted(\n        address nftContract,\n        uint256 tokenId,\n        address seller,\n        address owner\n    );\n\n    function giveHeat(uint256 _tokenId, uint256 _heatCount) public payable {\n        // Ensure that the NFT exists and is listed\n        NFT storage nft = _idToNFT[_tokenId];\n        require(nft.listed, \"NFT is not listed\");\n\n        // send the heat to the seller of the NFT\n        require(payable((nft.seller)).send(_heatCount), \"Transfer failed\"); // Increment the heatCount of the NFT by the given amount\n        nft.heatCount += _heatCount;\n    }\n\n    // function to send heat to the owner of the NFTs, respectivly\n\n    // Delete the NFT from the marketplace and transfer it back to the owner\n    function deleteNFT(uint256 _tokenId) public nonReentrant {\n        // Ensure that the NFT exists and is listed\n        NFT storage nft = _idToNFT[_tokenId];\n        require(nft.listed, \"NFT is not listed\");\n\n        // Ensure that the owner of the NFT is the one calling this function\n        require(nft.owner == msg.sender, \"Only the owner can delete the NFT\");\n\n        // Transfer the NFT back to the owner\n        IERC721(nft.nftContract).transferFrom(\n            address(this),\n            nft.owner,\n            nft.tokenId\n        );\n\n        // Unlist the NFT\n        nft.listed = false;\n\n        // Emit the NFTDeleted event\n        emit NFTDeleted(nft.nftContract, nft.tokenId, nft.seller, nft.owner);\n    }\n\n    // List the NFT on the marketplace\n    function listNft(\n        address _nftContract,\n        uint256 _tokenId\n    ) public payable nonReentrant {\n        IERC721(_nftContract).transferFrom(msg.sender, address(this), _tokenId);\n\n        _nftCount.increment();\n\n        _idToNFT[_tokenId] = NFT(\n            _nftContract,\n            _tokenId,\n            payable(msg.sender),\n            payable(address(this)),\n            true,\n            0,\n            \"\"\n        );\n\n        emit NFTListed(_nftContract, _tokenId, msg.sender, address(this));\n    }\n\n    function getListedNfts() public view returns (NFT[] memory) {\n        uint256 nftCount = _nftCount.current();\n        uint256 unsoldNftsCount = nftCount - _nftsSold.current();\n\n        NFT[] memory nfts = new NFT[](unsoldNftsCount);\n        uint256 nftsIndex = 0;\n        for (uint256 i = 0; i < nftCount; i++) {\n            if (_idToNFT[i + 1].listed) {\n                nfts[nftsIndex] = _idToNFT[i + 1];\n                nftsIndex++;\n            }\n        }\n        return nfts;\n    }\n\n    function getMyNfts() public view returns (NFT[] memory) {\n        uint256 nftCount = _nftCount.current();\n        uint256 myNftCount = 0;\n        for (uint256 i = 0; i < nftCount; i++) {\n            if (_idToNFT[i + 1].owner == msg.sender) {\n                myNftCount++;\n            }\n        }\n\n        NFT[] memory nfts = new NFT[](myNftCount);\n        uint256 nftsIndex = 0;\n        for (uint256 i = 0; i < nftCount; i++) {\n            if (_idToNFT[i + 1].owner == msg.sender) {\n                nfts[nftsIndex] = _idToNFT[i + 1];\n                nftsIndex++;\n            }\n        }\n        return nfts;\n    }\n\n    function getMyListedNfts() public view returns (NFT[] memory) {\n        uint256 nftCount = _nftCount.current();\n        uint256 myListedNftCount = 0;\n        for (uint256 i = 0; i < nftCount; i++) {\n            if (\n                _idToNFT[i + 1].seller == msg.sender && _idToNFT[i + 1].listed\n            ) {\n                myListedNftCount++;\n            }\n        }\n\n        NFT[] memory nfts = new NFT[](myListedNftCount);\n        uint256 nftsIndex = 0;\n        for (uint256 i = 0; i < nftCount; i++) {\n            if (\n                _idToNFT[i + 1].seller == msg.sender && _idToNFT[i + 1].listed\n            ) {\n                nfts[nftsIndex] = _idToNFT[i + 1];\n                nftsIndex++;\n            }\n        }\n        return nfts;\n    }\n}\n",
  "sourcePath": "/Users/chrisabdo/nws3/backend/contracts/Radio.sol",
  "compiler": {
    "name": "solc",
    "version": "0.8.17+commit.8df45f5f.Emscripten.clang"
  },
  "schemaVersion": "3.4.13",
  "updatedAt": "2023-04-06T22:37:36.381Z",
  "networkType": "ethereum",
  "devdoc": {
    "kind": "dev",
    "methods": {},
    "version": 1
  },
  "userdoc": {
    "kind": "user",
    "methods": {},
    "version": 1
  }
}