{
  "contractName": "Radio",
  "abi": [
    {
      "anonymous": false,
      "inputs": [
        {
          "indexed": false,
          "internalType": "address",
          "name": "nftContract",
          "type": "address"
        },
        {
          "indexed": false,
          "internalType": "uint256",
          "name": "tokenId",
          "type": "uint256"
        },
        {
          "indexed": false,
          "internalType": "address",
          "name": "seller",
          "type": "address"
        },
        {
          "indexed": false,
          "internalType": "address",
          "name": "owner",
          "type": "address"
        }
      ],
      "name": "NFTDeleted",
      "type": "event"
    },
    {
      "anonymous": false,
      "inputs": [
        {
          "indexed": false,
          "internalType": "address",
          "name": "nftContract",
          "type": "address"
        },
        {
          "indexed": false,
          "internalType": "uint256",
          "name": "tokenId",
          "type": "uint256"
        },
        {
          "indexed": false,
          "internalType": "address",
          "name": "seller",
          "type": "address"
        },
        {
          "indexed": false,
          "internalType": "address",
          "name": "owner",
          "type": "address"
        }
      ],
      "name": "NFTListed",
      "type": "event"
    },
    {
      "anonymous": false,
      "inputs": [
        {
          "indexed": false,
          "internalType": "address",
          "name": "nftContract",
          "type": "address"
        },
        {
          "indexed": false,
          "internalType": "uint256",
          "name": "tokenId",
          "type": "uint256"
        },
        {
          "indexed": false,
          "internalType": "address",
          "name": "seller",
          "type": "address"
        },
        {
          "indexed": false,
          "internalType": "address",
          "name": "owner",
          "type": "address"
        }
      ],
      "name": "NFTSold",
      "type": "event"
    },
    {
      "inputs": [
        {
          "internalType": "uint256",
          "name": "_tokenId",
          "type": "uint256"
        },
        {
          "internalType": "uint256",
          "name": "_heatCount",
          "type": "uint256"
        }
      ],
      "name": "giveHeat",
      "outputs": [],
      "stateMutability": "payable",
      "type": "function",
      "payable": true
    },
    {
      "inputs": [
        {
          "internalType": "uint256",
          "name": "_tokenId",
          "type": "uint256"
        }
      ],
      "name": "deleteNFT",
      "outputs": [],
      "stateMutability": "nonpayable",
      "type": "function"
    },
    {
      "inputs": [
        {
          "internalType": "address",
          "name": "_nftContract",
          "type": "address"
        },
        {
          "internalType": "uint256",
          "name": "_tokenId",
          "type": "uint256"
        }
      ],
      "name": "listNft",
      "outputs": [],
      "stateMutability": "payable",
      "type": "function",
      "payable": true
    },
    {
      "inputs": [],
      "name": "getListedNfts",
      "outputs": [
        {
          "components": [
            {
              "internalType": "address",
              "name": "nftContract",
              "type": "address"
            },
            {
              "internalType": "uint256",
              "name": "tokenId",
              "type": "uint256"
            },
            {
              "internalType": "address payable",
              "name": "seller",
              "type": "address"
            },
            {
              "internalType": "address payable",
              "name": "owner",
              "type": "address"
            },
            {
              "internalType": "bool",
              "name": "listed",
              "type": "bool"
            },
            {
              "internalType": "uint256",
              "name": "heatCount",
              "type": "uint256"
            },
            {
              "internalType": "string",
              "name": "genre",
              "type": "string"
            }
          ],
          "internalType": "struct Radio.NFT[]",
          "name": "",
          "type": "tuple[]"
        }
      ],
      "stateMutability": "view",
      "type": "function",
      "constant": true
    },
    {
      "inputs": [],
      "name": "getMyNfts",
      "outputs": [
        {
          "components": [
            {
              "internalType": "address",
              "name": "nftContract",
              "type": "address"
            },
            {
              "internalType": "uint256",
              "name": "tokenId",
              "type": "uint256"
            },
            {
              "internalType": "address payable",
              "name": "seller",
              "type": "address"
            },
            {
              "internalType": "address payable",
              "name": "owner",
              "type": "address"
            },
            {
              "internalType": "bool",
              "name": "listed",
              "type": "bool"
            },
            {
              "internalType": "uint256",
              "name": "heatCount",
              "type": "uint256"
            },
            {
              "internalType": "string",
              "name": "genre",
              "type": "string"
            }
          ],
          "internalType": "struct Radio.NFT[]",
          "name": "",
          "type": "tuple[]"
        }
      ],
      "stateMutability": "view",
      "type": "function",
      "constant": true
    },
    {
      "inputs": [],
      "name": "getMyListedNfts",
      "outputs": [
        {
          "components": [
            {
              "internalType": "address",
              "name": "nftContract",
              "type": "address"
            },
            {
              "internalType": "uint256",
              "name": "tokenId",
              "type": "uint256"
            },
            {
              "internalType": "address payable",
              "name": "seller",
              "type": "address"
            },
            {
              "internalType": "address payable",
              "name": "owner",
              "type": "address"
            },
            {
              "internalType": "bool",
              "name": "listed",
              "type": "bool"
            },
            {
              "internalType": "uint256",
              "name": "heatCount",
              "type": "uint256"
            },
            {
              "internalType": "string",
              "name": "genre",
              "type": "string"
            }
          ],
          "internalType": "struct Radio.NFT[]",
          "name": "",
          "type": "tuple[]"
        }
      ],
      "stateMutability": "view",
      "type": "function",
      "constant": true
    }
  ],
  "bytecode": "0x608060405234801561001057600080fd5b5060016000819055506120ee806100286000396000f3fe6080604052600436106100555760003560e01c8063047b07bf1461005a578063192027eb146100855780631f4cc4db146100a1578063414758d5146100cc5780638d6cb3fb146100e8578063f687ed5714610113575b600080fd5b34801561006657600080fd5b5061006f61013c565b60405161007c91906117ea565b60405180910390f35b61009f600480360381019061009a9190611869565b610501565b005b3480156100ad57600080fd5b506100b6610788565b6040516100c391906117ea565b60405180910390f35b6100e660048036038101906100e191906118a9565b610bbf565b005b3480156100f457600080fd5b506100fd610cdf565b60405161010a91906117ea565b60405180910390f35b34801561011f57600080fd5b5061013a600480360381019061013591906118e9565b610fd9565b005b6060600061014a600261140c565b90506000805b828110156101ef573373ffffffffffffffffffffffffffffffffffffffff16600360006001846101809190611945565b815260200190815260200160002060030160009054906101000a900473ffffffffffffffffffffffffffffffffffffffff1673ffffffffffffffffffffffffffffffffffffffff16036101dc5781806101d890611979565b9250505b80806101e790611979565b915050610150565b5060008167ffffffffffffffff81111561020c5761020b6119c1565b5b60405190808252806020026020018201604052801561024557816020015b6102326114e5565b81526020019060019003908161022a5790505b5090506000805b848110156104f6573373ffffffffffffffffffffffffffffffffffffffff166003600060018461027c9190611945565b815260200190815260200160002060030160009054906101000a900473ffffffffffffffffffffffffffffffffffffffff1673ffffffffffffffffffffffffffffffffffffffff16036104e357600360006001836102da9190611945565b81526020019081526020016000206040518060e00160405290816000820160009054906101000a900473ffffffffffffffffffffffffffffffffffffffff1673ffffffffffffffffffffffffffffffffffffffff1673ffffffffffffffffffffffffffffffffffffffff168152602001600182015481526020016002820160009054906101000a900473ffffffffffffffffffffffffffffffffffffffff1673ffffffffffffffffffffffffffffffffffffffff1673ffffffffffffffffffffffffffffffffffffffff1681526020016003820160009054906101000a900473ffffffffffffffffffffffffffffffffffffffff1673ffffffffffffffffffffffffffffffffffffffff1673ffffffffffffffffffffffffffffffffffffffff1681526020016003820160149054906101000a900460ff161515151581526020016004820154815260200160058201805461043490611a1f565b80601f016020809104026020016040519081016040528092919081815260200182805461046090611a1f565b80156104ad5780601f10610482576101008083540402835291602001916104ad565b820191906000526020600020905b81548152906001019060200180831161049057829003601f168201915b5050505050815250508383815181106104c9576104c8611a50565b5b602002602001018190525081806104df90611979565b9250505b80806104ee90611979565b91505061024c565b508194505050505090565b61050961141a565b8173ffffffffffffffffffffffffffffffffffffffff166323b872dd3330846040518463ffffffff1660e01b815260040161054693929190611a9d565b600060405180830381600087803b15801561056057600080fd5b505af1158015610574573d6000803e3d6000fd5b505050506105826002611469565b6040518060e001604052808373ffffffffffffffffffffffffffffffffffffffff1681526020018281526020013373ffffffffffffffffffffffffffffffffffffffff1681526020013073ffffffffffffffffffffffffffffffffffffffff16815260200160011515815260200160008152602001604051806020016040528060008152508152506003600083815260200190815260200160002060008201518160000160006101000a81548173ffffffffffffffffffffffffffffffffffffffff021916908373ffffffffffffffffffffffffffffffffffffffff1602179055506020820151816001015560408201518160020160006101000a81548173ffffffffffffffffffffffffffffffffffffffff021916908373ffffffffffffffffffffffffffffffffffffffff16021790555060608201518160030160006101000a81548173ffffffffffffffffffffffffffffffffffffffff021916908373ffffffffffffffffffffffffffffffffffffffff16021790555060808201518160030160146101000a81548160ff02191690831515021790555060a0820151816004015560c082015181600501908161073b9190611c80565b509050507f232534bbd51d7cde87652214a8c8454ac134ea309ff79aed199c676bebca94b9828233306040516107749493929190611d52565b60405180910390a161078461147f565b5050565b60606000610796600261140c565b90506000805b82811015610874573373ffffffffffffffffffffffffffffffffffffffff16600360006001846107cc9190611945565b815260200190815260200160002060020160009054906101000a900473ffffffffffffffffffffffffffffffffffffffff1673ffffffffffffffffffffffffffffffffffffffff1614801561084d57506003600060018361082d9190611945565b815260200190815260200160002060030160149054906101000a900460ff165b1561086157818061085d90611979565b9250505b808061086c90611979565b91505061079c565b5060008167ffffffffffffffff811115610891576108906119c1565b5b6040519080825280602002602001820160405280156108ca57816020015b6108b76114e5565b8152602001906001900390816108af5790505b5090506000805b84811015610bb4573373ffffffffffffffffffffffffffffffffffffffff16600360006001846109019190611945565b815260200190815260200160002060020160009054906101000a900473ffffffffffffffffffffffffffffffffffffffff1673ffffffffffffffffffffffffffffffffffffffff161480156109825750600360006001836109629190611945565b815260200190815260200160002060030160149054906101000a900460ff165b15610ba157600360006001836109989190611945565b81526020019081526020016000206040518060e00160405290816000820160009054906101000a900473ffffffffffffffffffffffffffffffffffffffff1673ffffffffffffffffffffffffffffffffffffffff1673ffffffffffffffffffffffffffffffffffffffff168152602001600182015481526020016002820160009054906101000a900473ffffffffffffffffffffffffffffffffffffffff1673ffffffffffffffffffffffffffffffffffffffff1673ffffffffffffffffffffffffffffffffffffffff1681526020016003820160009054906101000a900473ffffffffffffffffffffffffffffffffffffffff1673ffffffffffffffffffffffffffffffffffffffff1673ffffffffffffffffffffffffffffffffffffffff1681526020016003820160149054906101000a900460ff1615151515815260200160048201548152602001600582018054610af290611a1f565b80601f0160208091040260200160405190810160405280929190818152602001828054610b1e90611a1f565b8015610b6b5780601f10610b4057610100808354040283529160200191610b6b565b820191906000526020600020905b815481529060010190602001808311610b4e57829003601f168201915b505050505081525050838381518110610b8757610b86611a50565b5b60200260200101819052508180610b9d90611979565b9250505b8080610bac90611979565b9150506108d1565b508194505050505090565b60006003600084815260200190815260200160002090508060030160149054906101000a900460ff16610c27576040517f08c379a0000000000000000000000000000000000000000000000000000000008152600401610c1e90611df4565b60405180910390fd5b8060020160009054906101000a900473ffffffffffffffffffffffffffffffffffffffff1673ffffffffffffffffffffffffffffffffffffffff166108fc839081150290604051600060405180830381858888f19350505050610cbf576040517f08c379a0000000000000000000000000000000000000000000000000000000008152600401610cb690611e60565b60405180910390fd5b81816004016000828254610cd39190611945565b92505081905550505050565b60606000610ced600261140c565b90506000610cfb600161140c565b82610d069190611e80565b905060008167ffffffffffffffff811115610d2457610d236119c1565b5b604051908082528060200260200182016040528015610d5d57816020015b610d4a6114e5565b815260200190600190039081610d425790505b5090506000805b84811015610fce5760036000600183610d7d9190611945565b815260200190815260200160002060030160149054906101000a900460ff1615610fbb5760036000600183610db29190611945565b81526020019081526020016000206040518060e00160405290816000820160009054906101000a900473ffffffffffffffffffffffffffffffffffffffff1673ffffffffffffffffffffffffffffffffffffffff1673ffffffffffffffffffffffffffffffffffffffff168152602001600182015481526020016002820160009054906101000a900473ffffffffffffffffffffffffffffffffffffffff1673ffffffffffffffffffffffffffffffffffffffff1673ffffffffffffffffffffffffffffffffffffffff1681526020016003820160009054906101000a900473ffffffffffffffffffffffffffffffffffffffff1673ffffffffffffffffffffffffffffffffffffffff1673ffffffffffffffffffffffffffffffffffffffff1681526020016003820160149054906101000a900460ff1615151515815260200160048201548152602001600582018054610f0c90611a1f565b80601f0160208091040260200160405190810160405280929190818152602001828054610f3890611a1f565b8015610f855780601f10610f5a57610100808354040283529160200191610f85565b820191906000526020600020905b815481529060010190602001808311610f6857829003601f168201915b505050505081525050838381518110610fa157610fa0611a50565b5b60200260200101819052508180610fb790611979565b9250505b8080610fc690611979565b915050610d64565b508194505050505090565b610fe161141a565b60006003600083815260200190815260200160002090508060030160149054906101000a900460ff16611049576040517f08c379a000000000000000000000000000000000000000000000000000000000815260040161104090611df4565b60405180910390fd5b3373ffffffffffffffffffffffffffffffffffffffff168160020160009054906101000a900473ffffffffffffffffffffffffffffffffffffffff1673ffffffffffffffffffffffffffffffffffffffff16146110db576040517f08c379a00000000000000000000000000000000000000000000000000000000081526004016110d290611f26565b60405180910390fd5b60008160030160146101000a81548160ff021916908315150217905550600080600090505b61110a600261140c565b8110156111555783600360006001846111239190611945565b8152602001908152602001600020600101540361114257809150611155565b808061114d90611979565b915050611100565b5060036000611164600261140c565b815260200190815260200160002091506040518060e00160405280600073ffffffffffffffffffffffffffffffffffffffff16815260200160008152602001600073ffffffffffffffffffffffffffffffffffffffff168152602001600073ffffffffffffffffffffffffffffffffffffffff16815260200160001515815260200160008152602001604051806020016040528060008152508152506003600061120e600261140c565b815260200190815260200160002060008201518160000160006101000a81548173ffffffffffffffffffffffffffffffffffffffff021916908373ffffffffffffffffffffffffffffffffffffffff1602179055506020820151816001015560408201518160020160006101000a81548173ffffffffffffffffffffffffffffffffffffffff021916908373ffffffffffffffffffffffffffffffffffffffff16021790555060608201518160030160006101000a81548173ffffffffffffffffffffffffffffffffffffffff021916908373ffffffffffffffffffffffffffffffffffffffff16021790555060808201518160030160146101000a81548160ff02191690831515021790555060a0820151816004015560c082015181600501908161133a9190611c80565b509050506113486002611489565b6113526001611469565b7f48359e48a1f5ed61bd9a9b6a18ff557528271bcb297f07813c282639197d138b8260000160009054906101000a900473ffffffffffffffffffffffffffffffffffffffff1683600101548460020160009054906101000a900473ffffffffffffffffffffffffffffffffffffffff168560030160009054906101000a900473ffffffffffffffffffffffffffffffffffffffff166040516113f79493929190611f9b565b60405180910390a1505061140961147f565b50565b600081600001549050919050565b60026000540361145f576040517f08c379a00000000000000000000000000000000000000000000000000000000081526004016114569061202c565b60405180910390fd5b6002600081905550565b6001816000016000828254019250508190555050565b6001600081905550565b600081600001549050600081116114d5576040517f08c379a00000000000000000000000000000000000000000000000000000000081526004016114cc90612098565b60405180910390fd5b6001810382600001819055505050565b6040518060e00160405280600073ffffffffffffffffffffffffffffffffffffffff16815260200160008152602001600073ffffffffffffffffffffffffffffffffffffffff168152602001600073ffffffffffffffffffffffffffffffffffffffff16815260200160001515815260200160008152602001606081525090565b600081519050919050565b600082825260208201905092915050565b6000819050602082019050919050565b600073ffffffffffffffffffffffffffffffffffffffff82169050919050565b60006115bd82611592565b9050919050565b6115cd816115b2565b82525050565b6000819050919050565b6115e6816115d3565b82525050565b60006115f782611592565b9050919050565b611607816115ec565b82525050565b60008115159050919050565b6116228161160d565b82525050565b600081519050919050565b600082825260208201905092915050565b60005b83811015611662578082015181840152602081019050611647565b60008484015250505050565b6000601f19601f8301169050919050565b600061168a82611628565b6116948185611633565b93506116a4818560208601611644565b6116ad8161166e565b840191505092915050565b600060e0830160008301516116d060008601826115c4565b5060208301516116e360208601826115dd565b5060408301516116f660408601826115fe565b50606083015161170960608601826115fe565b50608083015161171c6080860182611619565b5060a083015161172f60a08601826115dd565b5060c083015184820360c0860152611747828261167f565b9150508091505092915050565b600061176083836116b8565b905092915050565b6000602082019050919050565b600061178082611566565b61178a8185611571565b93508360208202850161179c85611582565b8060005b858110156117d857848403895281516117b98582611754565b94506117c483611768565b925060208a019950506001810190506117a0565b50829750879550505050505092915050565b600060208201905081810360008301526118048184611775565b905092915050565b600080fd5b61181a816115b2565b811461182557600080fd5b50565b60008135905061183781611811565b92915050565b611846816115d3565b811461185157600080fd5b50565b6000813590506118638161183d565b92915050565b600080604083850312156118805761187f61180c565b5b600061188e85828601611828565b925050602061189f85828601611854565b9150509250929050565b600080604083850312156118c0576118bf61180c565b5b60006118ce85828601611854565b92505060206118df85828601611854565b9150509250929050565b6000602082840312156118ff576118fe61180c565b5b600061190d84828501611854565b91505092915050565b7f4e487b7100000000000000000000000000000000000000000000000000000000600052601160045260246000fd5b6000611950826115d3565b915061195b836115d3565b925082820190508082111561197357611972611916565b5b92915050565b6000611984826115d3565b91507fffffffffffffffffffffffffffffffffffffffffffffffffffffffffffffffff82036119b6576119b5611916565b5b600182019050919050565b7f4e487b7100000000000000000000000000000000000000000000000000000000600052604160045260246000fd5b7f4e487b7100000000000000000000000000000000000000000000000000000000600052602260045260246000fd5b60006002820490506001821680611a3757607f821691505b602082108103611a4a57611a496119f0565b5b50919050565b7f4e487b7100000000000000000000000000000000000000000000000000000000600052603260045260246000fd5b611a88816115b2565b82525050565b611a97816115d3565b82525050565b6000606082019050611ab26000830186611a7f565b611abf6020830185611a7f565b611acc6040830184611a8e565b949350505050565b60008190508160005260206000209050919050565b60006020601f8301049050919050565b600082821b905092915050565b600060088302611b367fffffffffffffffffffffffffffffffffffffffffffffffffffffffffffffffff82611af9565b611b408683611af9565b95508019841693508086168417925050509392505050565b6000819050919050565b6000611b7d611b78611b73846115d3565b611b58565b6115d3565b9050919050565b6000819050919050565b611b9783611b62565b611bab611ba382611b84565b848454611b06565b825550505050565b600090565b611bc0611bb3565b611bcb818484611b8e565b505050565b5b81811015611bef57611be4600082611bb8565b600181019050611bd1565b5050565b601f821115611c3457611c0581611ad4565b611c0e84611ae9565b81016020851015611c1d578190505b611c31611c2985611ae9565b830182611bd0565b50505b505050565b600082821c905092915050565b6000611c5760001984600802611c39565b1980831691505092915050565b6000611c708383611c46565b9150826002028217905092915050565b611c8982611628565b67ffffffffffffffff811115611ca257611ca16119c1565b5b611cac8254611a1f565b611cb7828285611bf3565b600060209050601f831160018114611cea5760008415611cd8578287015190505b611ce28582611c64565b865550611d4a565b601f198416611cf886611ad4565b60005b82811015611d2057848901518255600182019150602085019450602081019050611cfb565b86831015611d3d5784890151611d39601f891682611c46565b8355505b6001600288020188555050505b505050505050565b6000608082019050611d676000830187611a7f565b611d746020830186611a8e565b611d816040830185611a7f565b611d8e6060830184611a7f565b95945050505050565b600082825260208201905092915050565b7f4e4654206973206e6f74206c6973746564000000000000000000000000000000600082015250565b6000611dde601183611d97565b9150611de982611da8565b602082019050919050565b60006020820190508181036000830152611e0d81611dd1565b9050919050565b7f5472616e73666572206661696c65640000000000000000000000000000000000600082015250565b6000611e4a600f83611d97565b9150611e5582611e14565b602082019050919050565b60006020820190508181036000830152611e7981611e3d565b9050919050565b6000611e8b826115d3565b9150611e96836115d3565b9250828203905081811115611eae57611ead611916565b5b92915050565b7f4f6e6c7920746865206f776e65722063616e2064656c65746520746865204e4660008201527f5400000000000000000000000000000000000000000000000000000000000000602082015250565b6000611f10602183611d97565b9150611f1b82611eb4565b604082019050919050565b60006020820190508181036000830152611f3f81611f03565b9050919050565b6000611f61611f5c611f5784611592565b611b58565b611592565b9050919050565b6000611f7382611f46565b9050919050565b6000611f8582611f68565b9050919050565b611f9581611f7a565b82525050565b6000608082019050611fb06000830187611a7f565b611fbd6020830186611a8e565b611fca6040830185611f8c565b611fd76060830184611f8c565b95945050505050565b7f5265656e7472616e637947756172643a207265656e7472616e742063616c6c00600082015250565b6000612016601f83611d97565b915061202182611fe0565b602082019050919050565b6000602082019050818103600083015261204581612009565b9050919050565b7f436f756e7465723a2064656372656d656e74206f766572666c6f770000000000600082015250565b6000612082601b83611d97565b915061208d8261204c565b602082019050919050565b600060208201905081810360008301526120b181612075565b905091905056fea26469706673582212208aa5fe6aa9224a6b4e13f89835f7f7d4203548be66711f8b6c29037aa1755b7764736f6c63430008110033",
  "immutableReferences": {},
  "source": "// SPDX-License-Identifier: MIT\npragma solidity ^0.8.13;\n\nimport \"@openzeppelin/contracts/utils/Counters.sol\";\nimport \"@openzeppelin/contracts/token/ERC721/ERC721.sol\";\nimport \"@openzeppelin/contracts/security/ReentrancyGuard.sol\";\n\ncontract Radio is ReentrancyGuard {\n    using Counters for Counters.Counter;\n    Counters.Counter private _nftsSold;\n    Counters.Counter private _nftCount;\n\n    mapping(uint256 => NFT) private _idToNFT;\n\n    struct NFT {\n        address nftContract;\n        uint256 tokenId;\n        address payable seller;\n        address payable owner;\n        bool listed;\n        uint256 heatCount;\n        string genre;\n    }\n\n    event NFTListed(\n        address nftContract,\n        uint256 tokenId,\n        address seller,\n        address owner\n    );\n\n    event NFTSold(\n        address nftContract,\n        uint256 tokenId,\n        address seller,\n        address owner\n    );\n\n    event NFTDeleted(\n        address nftContract,\n        uint256 tokenId,\n        address seller,\n        address owner\n    );\n\n    function giveHeat(uint256 _tokenId, uint256 _heatCount) public payable {\n        // Ensure that the NFT exists and is listed\n        NFT storage nft = _idToNFT[_tokenId];\n        require(nft.listed, \"NFT is not listed\");\n\n        // send the heat to the seller of the NFT\n        require(payable((nft.seller)).send(_heatCount), \"Transfer failed\"); // Increment the heatCount of the NFT by the given amount\n        nft.heatCount += _heatCount;\n    }\n\n    // function to send heat to the owner of the NFTs, respectivly\n\n    // Delete the NFT from the marketplace and transfer it back to the owner\n    function deleteNFT(uint256 _tokenId) public nonReentrant {\n        // Ensure that the NFT exists and is listed\n        NFT storage nft = _idToNFT[_tokenId];\n        require(nft.listed, \"NFT is not listed\");\n\n        // Ensure that the seller of the NFT is the one calling this function\n        require(nft.seller == msg.sender, \"Only the owner can delete the NFT\");\n\n        // Unlist the NFT\n        nft.listed = false;\n\n        // Remove the NFT from the array of listed NFTs\n        uint256 index;\n        for (uint256 i = 0; i < _nftCount.current(); i++) {\n            if (_idToNFT[i + 1].tokenId == _tokenId) {\n                index = i;\n                break;\n            }\n        }\n        nft = _idToNFT[_nftCount.current()];\n        _idToNFT[_nftCount.current()] = NFT(\n            address(0),\n            0,\n            payable(address(0)),\n            payable(address(0)),\n            false,\n            0,\n            \"\"\n        );\n        _nftCount.decrement();\n        _nftsSold.increment();\n\n        // Emit the NFTSold event\n        emit NFTDeleted(nft.nftContract, nft.tokenId, nft.seller, nft.owner);\n    }\n\n    // List the NFT on the marketplace\n    function listNft(\n        address _nftContract,\n        uint256 _tokenId\n    ) public payable nonReentrant {\n        IERC721(_nftContract).transferFrom(msg.sender, address(this), _tokenId);\n\n        _nftCount.increment();\n\n        _idToNFT[_tokenId] = NFT(\n            _nftContract,\n            _tokenId,\n            payable(msg.sender),\n            payable(address(this)),\n            true,\n            0,\n            \"\"\n        );\n\n        emit NFTListed(_nftContract, _tokenId, msg.sender, address(this));\n    }\n\n    function getListedNfts() public view returns (NFT[] memory) {\n        uint256 nftCount = _nftCount.current();\n        uint256 unsoldNftsCount = nftCount - _nftsSold.current();\n\n        NFT[] memory nfts = new NFT[](unsoldNftsCount);\n        uint256 nftsIndex = 0;\n        for (uint256 i = 0; i < nftCount; i++) {\n            if (_idToNFT[i + 1].listed) {\n                nfts[nftsIndex] = _idToNFT[i + 1];\n                nftsIndex++;\n            }\n        }\n        return nfts;\n    }\n\n    function getMyNfts() public view returns (NFT[] memory) {\n        uint256 nftCount = _nftCount.current();\n        uint256 myNftCount = 0;\n        for (uint256 i = 0; i < nftCount; i++) {\n            if (_idToNFT[i + 1].owner == msg.sender) {\n                myNftCount++;\n            }\n        }\n\n        NFT[] memory nfts = new NFT[](myNftCount);\n        uint256 nftsIndex = 0;\n        for (uint256 i = 0; i < nftCount; i++) {\n            if (_idToNFT[i + 1].owner == msg.sender) {\n                nfts[nftsIndex] = _idToNFT[i + 1];\n                nftsIndex++;\n            }\n        }\n        return nfts;\n    }\n\n    function getMyListedNfts() public view returns (NFT[] memory) {\n        uint256 nftCount = _nftCount.current();\n        uint256 myListedNftCount = 0;\n        for (uint256 i = 0; i < nftCount; i++) {\n            if (\n                _idToNFT[i + 1].seller == msg.sender && _idToNFT[i + 1].listed\n            ) {\n                myListedNftCount++;\n            }\n        }\n\n        NFT[] memory nfts = new NFT[](myListedNftCount);\n        uint256 nftsIndex = 0;\n        for (uint256 i = 0; i < nftCount; i++) {\n            if (\n                _idToNFT[i + 1].seller == msg.sender && _idToNFT[i + 1].listed\n            ) {\n                nfts[nftsIndex] = _idToNFT[i + 1];\n                nftsIndex++;\n            }\n        }\n        return nfts;\n    }\n}\n",
  "sourcePath": "/Users/chrisabdo/nws3/backend/contracts/Radio.sol",
  "compiler": {
    "name": "solc",
    "version": "0.8.17+commit.8df45f5f.Emscripten.clang"
  },
  "schemaVersion": "3.4.13",
  "updatedAt": "2023-04-08T05:46:14.657Z",
  "networkType": "ethereum",
  "devdoc": {
    "kind": "dev",
    "methods": {},
    "version": 1
  },
  "userdoc": {
    "kind": "user",
    "methods": {},
    "version": 1
  }
}